{
  "_format": "hh-sol-artifact-1",
  "contractName": "RewardNFT",
  "sourceName": "contracts/RewardNFT.sol",
  "abi": [
    {
      "inputs": [
        {
          "internalType": "address",
          "name": "_stakeContractAddress",
          "type": "address"
        }
      ],
      "stateMutability": "nonpayable",
      "type": "constructor"
    },
    {
      "anonymous": false,
      "inputs": [
        {
          "indexed": true,
          "internalType": "address",
          "name": "owner",
          "type": "address"
        },
        {
          "indexed": true,
          "internalType": "address",
          "name": "approved",
          "type": "address"
        },
        {
          "indexed": true,
          "internalType": "uint256",
          "name": "tokenId",
          "type": "uint256"
        }
      ],
      "name": "Approval",
      "type": "event"
    },
    {
      "anonymous": false,
      "inputs": [
        {
          "indexed": true,
          "internalType": "address",
          "name": "owner",
          "type": "address"
        },
        {
          "indexed": true,
          "internalType": "address",
          "name": "operator",
          "type": "address"
        },
        {
          "indexed": false,
          "internalType": "bool",
          "name": "approved",
          "type": "bool"
        }
      ],
      "name": "ApprovalForAll",
      "type": "event"
    },
    {
      "anonymous": false,
      "inputs": [
        {
          "indexed": true,
          "internalType": "bytes32",
          "name": "role",
          "type": "bytes32"
        },
        {
          "indexed": true,
          "internalType": "bytes32",
          "name": "previousAdminRole",
          "type": "bytes32"
        },
        {
          "indexed": true,
          "internalType": "bytes32",
          "name": "newAdminRole",
          "type": "bytes32"
        }
      ],
      "name": "RoleAdminChanged",
      "type": "event"
    },
    {
      "anonymous": false,
      "inputs": [
        {
          "indexed": true,
          "internalType": "bytes32",
          "name": "role",
          "type": "bytes32"
        },
        {
          "indexed": true,
          "internalType": "address",
          "name": "account",
          "type": "address"
        },
        {
          "indexed": true,
          "internalType": "address",
          "name": "sender",
          "type": "address"
        }
      ],
      "name": "RoleGranted",
      "type": "event"
    },
    {
      "anonymous": false,
      "inputs": [
        {
          "indexed": true,
          "internalType": "bytes32",
          "name": "role",
          "type": "bytes32"
        },
        {
          "indexed": true,
          "internalType": "address",
          "name": "account",
          "type": "address"
        },
        {
          "indexed": true,
          "internalType": "address",
          "name": "sender",
          "type": "address"
        }
      ],
      "name": "RoleRevoked",
      "type": "event"
    },
    {
      "anonymous": false,
      "inputs": [
        {
          "indexed": true,
          "internalType": "address",
          "name": "from",
          "type": "address"
        },
        {
          "indexed": true,
          "internalType": "address",
          "name": "to",
          "type": "address"
        },
        {
          "indexed": true,
          "internalType": "uint256",
          "name": "tokenId",
          "type": "uint256"
        }
      ],
      "name": "Transfer",
      "type": "event"
    },
    {
      "inputs": [],
      "name": "DEFAULT_ADMIN_ROLE",
      "outputs": [
        {
          "internalType": "bytes32",
          "name": "",
          "type": "bytes32"
        }
      ],
      "stateMutability": "view",
      "type": "function"
    },
    {
      "inputs": [],
      "name": "STAKE_CONTRACT_ROLE",
      "outputs": [
        {
          "internalType": "bytes32",
          "name": "",
          "type": "bytes32"
        }
      ],
      "stateMutability": "view",
      "type": "function"
    },
    {
      "inputs": [
        {
          "internalType": "address",
          "name": "to",
          "type": "address"
        },
        {
          "internalType": "uint256",
          "name": "tokenId",
          "type": "uint256"
        }
      ],
      "name": "approve",
      "outputs": [],
      "stateMutability": "nonpayable",
      "type": "function"
    },
    {
      "inputs": [
        {
          "internalType": "address",
          "name": "owner",
          "type": "address"
        }
      ],
      "name": "balanceOf",
      "outputs": [
        {
          "internalType": "uint256",
          "name": "",
          "type": "uint256"
        }
      ],
      "stateMutability": "view",
      "type": "function"
    },
    {
      "inputs": [
        {
          "internalType": "uint256",
          "name": "tokenId",
          "type": "uint256"
        }
      ],
      "name": "getApproved",
      "outputs": [
        {
          "internalType": "address",
          "name": "",
          "type": "address"
        }
      ],
      "stateMutability": "view",
      "type": "function"
    },
    {
      "inputs": [
        {
          "internalType": "bytes32",
          "name": "role",
          "type": "bytes32"
        }
      ],
      "name": "getRoleAdmin",
      "outputs": [
        {
          "internalType": "bytes32",
          "name": "",
          "type": "bytes32"
        }
      ],
      "stateMutability": "view",
      "type": "function"
    },
    {
      "inputs": [
        {
          "internalType": "bytes32",
          "name": "role",
          "type": "bytes32"
        },
        {
          "internalType": "address",
          "name": "account",
          "type": "address"
        }
      ],
      "name": "grantRole",
      "outputs": [],
      "stateMutability": "nonpayable",
      "type": "function"
    },
    {
      "inputs": [
        {
          "internalType": "bytes32",
          "name": "role",
          "type": "bytes32"
        },
        {
          "internalType": "address",
          "name": "account",
          "type": "address"
        }
      ],
      "name": "hasRole",
      "outputs": [
        {
          "internalType": "bool",
          "name": "",
          "type": "bool"
        }
      ],
      "stateMutability": "view",
      "type": "function"
    },
    {
      "inputs": [
        {
          "internalType": "address",
          "name": "owner",
          "type": "address"
        },
        {
          "internalType": "address",
          "name": "operator",
          "type": "address"
        }
      ],
      "name": "isApprovedForAll",
      "outputs": [
        {
          "internalType": "bool",
          "name": "",
          "type": "bool"
        }
      ],
      "stateMutability": "view",
      "type": "function"
    },
    {
      "inputs": [],
      "name": "name",
      "outputs": [
        {
          "internalType": "string",
          "name": "",
          "type": "string"
        }
      ],
      "stateMutability": "view",
      "type": "function"
    },
    {
      "inputs": [
        {
          "internalType": "uint256",
          "name": "tokenId",
          "type": "uint256"
        }
      ],
      "name": "ownerOf",
      "outputs": [
        {
          "internalType": "address",
          "name": "",
          "type": "address"
        }
      ],
      "stateMutability": "view",
      "type": "function"
    },
    {
      "inputs": [
        {
          "internalType": "bytes32",
          "name": "role",
          "type": "bytes32"
        },
        {
          "internalType": "address",
          "name": "account",
          "type": "address"
        }
      ],
      "name": "renounceRole",
      "outputs": [],
      "stateMutability": "nonpayable",
      "type": "function"
    },
    {
      "inputs": [
        {
          "internalType": "bytes32",
          "name": "role",
          "type": "bytes32"
        },
        {
          "internalType": "address",
          "name": "account",
          "type": "address"
        }
      ],
      "name": "revokeRole",
      "outputs": [],
      "stateMutability": "nonpayable",
      "type": "function"
    },
    {
      "inputs": [
        {
          "internalType": "address",
          "name": "to",
          "type": "address"
        },
        {
          "internalType": "uint256",
          "name": "tokenId",
          "type": "uint256"
        }
      ],
      "name": "safeMint",
      "outputs": [],
      "stateMutability": "nonpayable",
      "type": "function"
    },
    {
      "inputs": [
        {
          "internalType": "address",
          "name": "from",
          "type": "address"
        },
        {
          "internalType": "address",
          "name": "to",
          "type": "address"
        },
        {
          "internalType": "uint256",
          "name": "tokenId",
          "type": "uint256"
        }
      ],
      "name": "safeTransferFrom",
      "outputs": [],
      "stateMutability": "nonpayable",
      "type": "function"
    },
    {
      "inputs": [
        {
          "internalType": "address",
          "name": "from",
          "type": "address"
        },
        {
          "internalType": "address",
          "name": "to",
          "type": "address"
        },
        {
          "internalType": "uint256",
          "name": "tokenId",
          "type": "uint256"
        },
        {
          "internalType": "bytes",
          "name": "data",
          "type": "bytes"
        }
      ],
      "name": "safeTransferFrom",
      "outputs": [],
      "stateMutability": "nonpayable",
      "type": "function"
    },
    {
      "inputs": [
        {
          "internalType": "address",
          "name": "operator",
          "type": "address"
        },
        {
          "internalType": "bool",
          "name": "approved",
          "type": "bool"
        }
      ],
      "name": "setApprovalForAll",
      "outputs": [],
      "stateMutability": "nonpayable",
      "type": "function"
    },
    {
      "inputs": [
        {
          "internalType": "bytes4",
          "name": "interfaceId",
          "type": "bytes4"
        }
      ],
      "name": "supportsInterface",
      "outputs": [
        {
          "internalType": "bool",
          "name": "",
          "type": "bool"
        }
      ],
      "stateMutability": "view",
      "type": "function"
    },
    {
      "inputs": [],
      "name": "symbol",
      "outputs": [
        {
          "internalType": "string",
          "name": "",
          "type": "string"
        }
      ],
      "stateMutability": "view",
      "type": "function"
    },
    {
      "inputs": [
        {
          "internalType": "uint256",
          "name": "tokenId",
          "type": "uint256"
        }
      ],
      "name": "tokenURI",
      "outputs": [
        {
          "internalType": "string",
          "name": "",
          "type": "string"
        }
      ],
      "stateMutability": "view",
      "type": "function"
    },
    {
      "inputs": [
        {
          "internalType": "address",
          "name": "from",
          "type": "address"
        },
        {
          "internalType": "address",
          "name": "to",
          "type": "address"
        },
        {
          "internalType": "uint256",
          "name": "tokenId",
          "type": "uint256"
        }
      ],
      "name": "transferFrom",
      "outputs": [],
      "stateMutability": "nonpayable",
      "type": "function"
    }
  ],
  "bytecode": "0x60806040523480156200001157600080fd5b5060405162003962380380620039628339818101604052810190620000379190620002fc565b6040518060400160405280600981526020017f5265776172644e465400000000000000000000000000000000000000000000008152506040518060400160405280600481526020017f524e4654000000000000000000000000000000000000000000000000000000008152508160009081620000b49190620005a8565b508060019081620000c69190620005a8565b505050620000de6000801b336200011760201b60201c565b620001107f14e2d75844ec9e60a3107931e7cbb57b8da8e2b4a2b873e61509a6a49e066380826200011760201b60201c565b506200068f565b6200012982826200012d60201b60201c565b5050565b6200013f82826200021f60201b60201c565b6200021b5760016006600084815260200190815260200160002060000160008373ffffffffffffffffffffffffffffffffffffffff1673ffffffffffffffffffffffffffffffffffffffff16815260200190815260200160002060006101000a81548160ff021916908315150217905550620001c06200028a60201b60201c565b73ffffffffffffffffffffffffffffffffffffffff168173ffffffffffffffffffffffffffffffffffffffff16837f2f8788117e7eff1d82e926ec794901d17c78024a50270940304540a733656f0d60405160405180910390a45b5050565b60006006600084815260200190815260200160002060000160008373ffffffffffffffffffffffffffffffffffffffff1673ffffffffffffffffffffffffffffffffffffffff16815260200190815260200160002060009054906101000a900460ff16905092915050565b600033905090565b600080fd5b600073ffffffffffffffffffffffffffffffffffffffff82169050919050565b6000620002c48262000297565b9050919050565b620002d681620002b7565b8114620002e257600080fd5b50565b600081519050620002f681620002cb565b92915050565b60006020828403121562000315576200031462000292565b5b60006200032584828501620002e5565b91505092915050565b600081519050919050565b7f4e487b7100000000000000000000000000000000000000000000000000000000600052604160045260246000fd5b7f4e487b7100000000000000000000000000000000000000000000000000000000600052602260045260246000fd5b60006002820490506001821680620003b057607f821691505b602082108103620003c657620003c562000368565b5b50919050565b60008190508160005260206000209050919050565b60006020601f8301049050919050565b600082821b905092915050565b600060088302620004307fffffffffffffffffffffffffffffffffffffffffffffffffffffffffffffffff82620003f1565b6200043c8683620003f1565b95508019841693508086168417925050509392505050565b6000819050919050565b6000819050919050565b600062000489620004836200047d8462000454565b6200045e565b62000454565b9050919050565b6000819050919050565b620004a58362000468565b620004bd620004b48262000490565b848454620003fe565b825550505050565b600090565b620004d4620004c5565b620004e18184846200049a565b505050565b5b818110156200050957620004fd600082620004ca565b600181019050620004e7565b5050565b601f82111562000558576200052281620003cc565b6200052d84620003e1565b810160208510156200053d578190505b620005556200054c85620003e1565b830182620004e6565b50505b505050565b600082821c905092915050565b60006200057d600019846008026200055d565b1980831691505092915050565b60006200059883836200056a565b9150826002028217905092915050565b620005b3826200032e565b67ffffffffffffffff811115620005cf57620005ce62000339565b5b620005db825462000397565b620005e88282856200050d565b600060209050601f8311600181146200062057600084156200060b578287015190505b6200061785826200058a565b86555062000687565b601f1984166200063086620003cc565b60005b828110156200065a5784890151825560018201915060208501945060208101905062000633565b868310156200067a578489015162000676601f8916826200056a565b8355505b6001600288020188555050505b505050505050565b6132c3806200069f6000396000f3fe608060405234801561001057600080fd5b50600436106101375760003560e01c80636352211e116100b8578063a217fddf1161007c578063a217fddf1461035e578063a22cb4651461037c578063b88d4fde14610398578063c87b56dd146103b4578063d547741f146103e4578063e985e9c51461040057610137565b80636352211e1461029457806370a08231146102c457806391d14854146102f457806395d89b4114610324578063a14481941461034257610137565b806323b872dd116100ff57806323b872dd146101f4578063248a9ca3146102105780632f2ff15d1461024057806336568abe1461025c57806342842e0e1461027857610137565b8063015e89c11461013c57806301ffc9a71461015a57806306fdde031461018a578063081812fc146101a8578063095ea7b3146101d8575b600080fd5b610144610430565b6040516101519190612132565b60405180910390f35b610174600480360381019061016f91906121b9565b610454565b6040516101819190612201565b60405180910390f35b610192610476565b60405161019f91906122ac565b60405180910390f35b6101c260048036038101906101bd9190612304565b610508565b6040516101cf9190612372565b60405180910390f35b6101f260048036038101906101ed91906123b9565b61054e565b005b61020e600480360381019061020991906123f9565b610665565b005b61022a60048036038101906102259190612478565b6106c5565b6040516102379190612132565b60405180910390f35b61025a600480360381019061025591906124a5565b6106e5565b005b610276600480360381019061027191906124a5565b610706565b005b610292600480360381019061028d91906123f9565b610789565b005b6102ae60048036038101906102a99190612304565b6107a9565b6040516102bb9190612372565b60405180910390f35b6102de60048036038101906102d991906124e5565b61082f565b6040516102eb9190612521565b60405180910390f35b61030e600480360381019061030991906124a5565b6108e6565b60405161031b9190612201565b60405180910390f35b61032c610951565b60405161033991906122ac565b60405180910390f35b61035c600480360381019061035791906123b9565b6109e3565b005b610366610a6e565b6040516103739190612132565b60405180910390f35b61039660048036038101906103919190612568565b610a75565b005b6103b260048036038101906103ad91906126dd565b610a8b565b005b6103ce60048036038101906103c99190612304565b610aed565b6040516103db91906122ac565b60405180910390f35b6103fe60048036038101906103f991906124a5565b610b55565b005b61041a60048036038101906104159190612760565b610b76565b6040516104279190612201565b60405180910390f35b7f14e2d75844ec9e60a3107931e7cbb57b8da8e2b4a2b873e61509a6a49e06638081565b600061045f82610c0a565b8061046f575061046e82610c84565b5b9050919050565b606060008054610485906127cf565b80601f01602080910402602001604051908101604052809291908181526020018280546104b1906127cf565b80156104fe5780601f106104d3576101008083540402835291602001916104fe565b820191906000526020600020905b8154815290600101906020018083116104e157829003601f168201915b5050505050905090565b600061051382610d66565b6004600083815260200190815260200160002060009054906101000a900473ffffffffffffffffffffffffffffffffffffffff169050919050565b6000610559826107a9565b90508073ffffffffffffffffffffffffffffffffffffffff168373ffffffffffffffffffffffffffffffffffffffff16036105c9576040517f08c379a00000000000000000000000000000000000000000000000000000000081526004016105c090612872565b60405180910390fd5b8073ffffffffffffffffffffffffffffffffffffffff166105e8610db1565b73ffffffffffffffffffffffffffffffffffffffff161480610617575061061681610611610db1565b610b76565b5b610656576040517f08c379a000000000000000000000000000000000000000000000000000000000815260040161064d90612904565b60405180910390fd5b6106608383610db9565b505050565b610676610670610db1565b82610e72565b6106b5576040517f08c379a00000000000000000000000000000000000000000000000000000000081526004016106ac90612996565b60405180910390fd5b6106c0838383610f07565b505050565b600060066000838152602001908152602001600020600101549050919050565b6106ee826106c5565b6106f781611200565b6107018383611214565b505050565b61070e610db1565b73ffffffffffffffffffffffffffffffffffffffff168173ffffffffffffffffffffffffffffffffffffffff161461077b576040517f08c379a000000000000000000000000000000000000000000000000000000000815260040161077290612a28565b60405180910390fd5b61078582826112f5565b5050565b6107a483838360405180602001604052806000815250610a8b565b505050565b6000806107b5836113d7565b9050600073ffffffffffffffffffffffffffffffffffffffff168173ffffffffffffffffffffffffffffffffffffffff1603610826576040517f08c379a000000000000000000000000000000000000000000000000000000000815260040161081d90612a94565b60405180910390fd5b80915050919050565b60008073ffffffffffffffffffffffffffffffffffffffff168273ffffffffffffffffffffffffffffffffffffffff160361089f576040517f08c379a000000000000000000000000000000000000000000000000000000000815260040161089690612b26565b60405180910390fd5b600360008373ffffffffffffffffffffffffffffffffffffffff1673ffffffffffffffffffffffffffffffffffffffff168152602001908152602001600020549050919050565b60006006600084815260200190815260200160002060000160008373ffffffffffffffffffffffffffffffffffffffff1673ffffffffffffffffffffffffffffffffffffffff16815260200190815260200160002060009054906101000a900460ff16905092915050565b606060018054610960906127cf565b80601f016020809104026020016040519081016040528092919081815260200182805461098c906127cf565b80156109d95780601f106109ae576101008083540402835291602001916109d9565b820191906000526020600020905b8154815290600101906020018083116109bc57829003601f168201915b5050505050905090565b6109f06000801b336108e6565b80610a215750610a207f14e2d75844ec9e60a3107931e7cbb57b8da8e2b4a2b873e61509a6a49e066380336108e6565b5b610a60576040517f08c379a0000000000000000000000000000000000000000000000000000000008152600401610a5790612b92565b60405180910390fd5b610a6a8282611414565b5050565b6000801b81565b610a87610a80610db1565b8383611432565b5050565b610a9c610a96610db1565b83610e72565b610adb576040517f08c379a0000000000000000000000000000000000000000000000000000000008152600401610ad290612996565b60405180910390fd5b610ae78484848461159e565b50505050565b6060610af882610d66565b6000610b026115fa565b90506000815111610b225760405180602001604052806000815250610b4d565b80610b2c84611611565b604051602001610b3d929190612bee565b6040516020818303038152906040525b915050919050565b610b5e826106c5565b610b6781611200565b610b7183836112f5565b505050565b6000600560008473ffffffffffffffffffffffffffffffffffffffff1673ffffffffffffffffffffffffffffffffffffffff16815260200190815260200160002060008373ffffffffffffffffffffffffffffffffffffffff1673ffffffffffffffffffffffffffffffffffffffff16815260200190815260200160002060009054906101000a900460ff16905092915050565b60007f7965db0b000000000000000000000000000000000000000000000000000000007bffffffffffffffffffffffffffffffffffffffffffffffffffffffff1916827bffffffffffffffffffffffffffffffffffffffffffffffffffffffff19161480610c7d5750610c7c82610c84565b5b9050919050565b60007f80ac58cd000000000000000000000000000000000000000000000000000000007bffffffffffffffffffffffffffffffffffffffffffffffffffffffff1916827bffffffffffffffffffffffffffffffffffffffffffffffffffffffff19161480610d4f57507f5b5e139f000000000000000000000000000000000000000000000000000000007bffffffffffffffffffffffffffffffffffffffffffffffffffffffff1916827bffffffffffffffffffffffffffffffffffffffffffffffffffffffff1916145b80610d5f5750610d5e826116df565b5b9050919050565b610d6f81611749565b610dae576040517f08c379a0000000000000000000000000000000000000000000000000000000008152600401610da590612a94565b60405180910390fd5b50565b600033905090565b816004600083815260200190815260200160002060006101000a81548173ffffffffffffffffffffffffffffffffffffffff021916908373ffffffffffffffffffffffffffffffffffffffff160217905550808273ffffffffffffffffffffffffffffffffffffffff16610e2c836107a9565b73ffffffffffffffffffffffffffffffffffffffff167f8c5be1e5ebec7d5bd14f71427d1e84f3dd0314c0f7b2291e5b200ac8c7c3b92560405160405180910390a45050565b600080610e7e836107a9565b90508073ffffffffffffffffffffffffffffffffffffffff168473ffffffffffffffffffffffffffffffffffffffff161480610ec05750610ebf8185610b76565b5b80610efe57508373ffffffffffffffffffffffffffffffffffffffff16610ee684610508565b73ffffffffffffffffffffffffffffffffffffffff16145b91505092915050565b8273ffffffffffffffffffffffffffffffffffffffff16610f27826107a9565b73ffffffffffffffffffffffffffffffffffffffff1614610f7d576040517f08c379a0000000000000000000000000000000000000000000000000000000008152600401610f7490612c84565b60405180910390fd5b600073ffffffffffffffffffffffffffffffffffffffff168273ffffffffffffffffffffffffffffffffffffffff1603610fec576040517f08c379a0000000000000000000000000000000000000000000000000000000008152600401610fe390612d16565b60405180910390fd5b610ff9838383600161178a565b8273ffffffffffffffffffffffffffffffffffffffff16611019826107a9565b73ffffffffffffffffffffffffffffffffffffffff161461106f576040517f08c379a000000000000000000000000000000000000000000000000000000000815260040161106690612c84565b60405180910390fd5b6004600082815260200190815260200160002060006101000a81549073ffffffffffffffffffffffffffffffffffffffff02191690556001600360008573ffffffffffffffffffffffffffffffffffffffff1673ffffffffffffffffffffffffffffffffffffffff168152602001908152602001600020600082825403925050819055506001600360008473ffffffffffffffffffffffffffffffffffffffff1673ffffffffffffffffffffffffffffffffffffffff16815260200190815260200160002060008282540192505081905550816002600083815260200190815260200160002060006101000a81548173ffffffffffffffffffffffffffffffffffffffff021916908373ffffffffffffffffffffffffffffffffffffffff160217905550808273ffffffffffffffffffffffffffffffffffffffff168473ffffffffffffffffffffffffffffffffffffffff167fddf252ad1be2c89b69c2b068fc378daa952ba7f163c4a11628f55a4df523b3ef60405160405180910390a46111fb83838360016118b0565b505050565b6112118161120c610db1565b6118b6565b50565b61121e82826108e6565b6112f15760016006600084815260200190815260200160002060000160008373ffffffffffffffffffffffffffffffffffffffff1673ffffffffffffffffffffffffffffffffffffffff16815260200190815260200160002060006101000a81548160ff021916908315150217905550611296610db1565b73ffffffffffffffffffffffffffffffffffffffff168173ffffffffffffffffffffffffffffffffffffffff16837f2f8788117e7eff1d82e926ec794901d17c78024a50270940304540a733656f0d60405160405180910390a45b5050565b6112ff82826108e6565b156113d35760006006600084815260200190815260200160002060000160008373ffffffffffffffffffffffffffffffffffffffff1673ffffffffffffffffffffffffffffffffffffffff16815260200190815260200160002060006101000a81548160ff021916908315150217905550611378610db1565b73ffffffffffffffffffffffffffffffffffffffff168173ffffffffffffffffffffffffffffffffffffffff16837ff6391f5c32d9c69d2a47ea670b442974b53935d1edc7fd64eb21e047a839171b60405160405180910390a45b5050565b60006002600083815260200190815260200160002060009054906101000a900473ffffffffffffffffffffffffffffffffffffffff169050919050565b61142e82826040518060200160405280600081525061193b565b5050565b8173ffffffffffffffffffffffffffffffffffffffff168373ffffffffffffffffffffffffffffffffffffffff16036114a0576040517f08c379a000000000000000000000000000000000000000000000000000000000815260040161149790612d82565b60405180910390fd5b80600560008573ffffffffffffffffffffffffffffffffffffffff1673ffffffffffffffffffffffffffffffffffffffff16815260200190815260200160002060008473ffffffffffffffffffffffffffffffffffffffff1673ffffffffffffffffffffffffffffffffffffffff16815260200190815260200160002060006101000a81548160ff0219169083151502179055508173ffffffffffffffffffffffffffffffffffffffff168373ffffffffffffffffffffffffffffffffffffffff167f17307eab39ab6107e8899845ad3d59bd9653f200f220920489ca2b5937696c31836040516115919190612201565b60405180910390a3505050565b6115a9848484610f07565b6115b584848484611996565b6115f4576040517f08c379a00000000000000000000000000000000000000000000000000000000081526004016115eb90612e14565b60405180910390fd5b50505050565b606060405180602001604052806000815250905090565b60606000600161162084611b1d565b01905060008167ffffffffffffffff81111561163f5761163e6125b2565b5b6040519080825280601f01601f1916602001820160405280156116715781602001600182028036833780820191505090505b509050600082602001820190505b6001156116d4578080600190039150507f3031323334353637383961626364656600000000000000000000000000000000600a86061a8153600a85816116c8576116c7612e34565b5b0494506000850361167f575b819350505050919050565b60007f01ffc9a7000000000000000000000000000000000000000000000000000000007bffffffffffffffffffffffffffffffffffffffffffffffffffffffff1916827bffffffffffffffffffffffffffffffffffffffffffffffffffffffff1916149050919050565b60008073ffffffffffffffffffffffffffffffffffffffff1661176b836113d7565b73ffffffffffffffffffffffffffffffffffffffff1614159050919050565b60018111156118aa57600073ffffffffffffffffffffffffffffffffffffffff168473ffffffffffffffffffffffffffffffffffffffff161461181e5780600360008673ffffffffffffffffffffffffffffffffffffffff1673ffffffffffffffffffffffffffffffffffffffff16815260200190815260200160002060008282546118169190612e92565b925050819055505b600073ffffffffffffffffffffffffffffffffffffffff168373ffffffffffffffffffffffffffffffffffffffff16146118a95780600360008573ffffffffffffffffffffffffffffffffffffffff1673ffffffffffffffffffffffffffffffffffffffff16815260200190815260200160002060008282546118a19190612ec6565b925050819055505b5b50505050565b50505050565b6118c082826108e6565b611937576118cd81611c70565b6118db8360001c6020611c9d565b6040516020016118ec929190612f92565b6040516020818303038152906040526040517f08c379a000000000000000000000000000000000000000000000000000000000815260040161192e91906122ac565b60405180910390fd5b5050565b6119458383611ed9565b6119526000848484611996565b611991576040517f08c379a000000000000000000000000000000000000000000000000000000000815260040161198890612e14565b60405180910390fd5b505050565b60006119b78473ffffffffffffffffffffffffffffffffffffffff166120f6565b15611b10578373ffffffffffffffffffffffffffffffffffffffff1663150b7a026119e0610db1565b8786866040518563ffffffff1660e01b8152600401611a029493929190613021565b6020604051808303816000875af1925050508015611a3e57506040513d601f19601f82011682018060405250810190611a3b9190613082565b60015b611ac0573d8060008114611a6e576040519150601f19603f3d011682016040523d82523d6000602084013e611a73565b606091505b506000815103611ab8576040517f08c379a0000000000000000000000000000000000000000000000000000000008152600401611aaf90612e14565b60405180910390fd5b805181602001fd5b63150b7a0260e01b7bffffffffffffffffffffffffffffffffffffffffffffffffffffffff1916817bffffffffffffffffffffffffffffffffffffffffffffffffffffffff191614915050611b15565b600190505b949350505050565b600080600090507a184f03e93ff9f4daa797ed6e38ed64bf6a1f0100000000000000008310611b7b577a184f03e93ff9f4daa797ed6e38ed64bf6a1f0100000000000000008381611b7157611b70612e34565b5b0492506040810190505b6d04ee2d6d415b85acef81000000008310611bb8576d04ee2d6d415b85acef81000000008381611bae57611bad612e34565b5b0492506020810190505b662386f26fc100008310611be757662386f26fc100008381611bdd57611bdc612e34565b5b0492506010810190505b6305f5e1008310611c10576305f5e1008381611c0657611c05612e34565b5b0492506008810190505b6127108310611c35576127108381611c2b57611c2a612e34565b5b0492506004810190505b60648310611c585760648381611c4e57611c4d612e34565b5b0492506002810190505b600a8310611c67576001810190505b80915050919050565b6060611c968273ffffffffffffffffffffffffffffffffffffffff16601460ff16611c9d565b9050919050565b606060006002836002611cb091906130af565b611cba9190612ec6565b67ffffffffffffffff811115611cd357611cd26125b2565b5b6040519080825280601f01601f191660200182016040528015611d055781602001600182028036833780820191505090505b5090507f300000000000000000000000000000000000000000000000000000000000000081600081518110611d3d57611d3c6130f1565b5b60200101907effffffffffffffffffffffffffffffffffffffffffffffffffffffffffffff1916908160001a9053507f780000000000000000000000000000000000000000000000000000000000000081600181518110611da157611da06130f1565b5b60200101907effffffffffffffffffffffffffffffffffffffffffffffffffffffffffffff1916908160001a90535060006001846002611de191906130af565b611deb9190612ec6565b90505b6001811115611e8b577f3031323334353637383961626364656600000000000000000000000000000000600f861660108110611e2d57611e2c6130f1565b5b1a60f81b828281518110611e4457611e436130f1565b5b60200101907effffffffffffffffffffffffffffffffffffffffffffffffffffffffffffff1916908160001a905350600485901c945080611e8490613120565b9050611dee565b5060008414611ecf576040517f08c379a0000000000000000000000000000000000000000000000000000000008152600401611ec690613195565b60405180910390fd5b8091505092915050565b600073ffffffffffffffffffffffffffffffffffffffff168273ffffffffffffffffffffffffffffffffffffffff1603611f48576040517f08c379a0000000000000000000000000000000000000000000000000000000008152600401611f3f90613201565b60405180910390fd5b611f5181611749565b15611f91576040517f08c379a0000000000000000000000000000000000000000000000000000000008152600401611f889061326d565b60405180910390fd5b611f9f60008383600161178a565b611fa881611749565b15611fe8576040517f08c379a0000000000000000000000000000000000000000000000000000000008152600401611fdf9061326d565b60405180910390fd5b6001600360008473ffffffffffffffffffffffffffffffffffffffff1673ffffffffffffffffffffffffffffffffffffffff16815260200190815260200160002060008282540192505081905550816002600083815260200190815260200160002060006101000a81548173ffffffffffffffffffffffffffffffffffffffff021916908373ffffffffffffffffffffffffffffffffffffffff160217905550808273ffffffffffffffffffffffffffffffffffffffff16600073ffffffffffffffffffffffffffffffffffffffff167fddf252ad1be2c89b69c2b068fc378daa952ba7f163c4a11628f55a4df523b3ef60405160405180910390a46120f26000838360016118b0565b5050565b6000808273ffffffffffffffffffffffffffffffffffffffff163b119050919050565b6000819050919050565b61212c81612119565b82525050565b60006020820190506121476000830184612123565b92915050565b6000604051905090565b600080fd5b600080fd5b60007fffffffff0000000000000000000000000000000000000000000000000000000082169050919050565b61219681612161565b81146121a157600080fd5b50565b6000813590506121b38161218d565b92915050565b6000602082840312156121cf576121ce612157565b5b60006121dd848285016121a4565b91505092915050565b60008115159050919050565b6121fb816121e6565b82525050565b600060208201905061221660008301846121f2565b92915050565b600081519050919050565b600082825260208201905092915050565b60005b8381101561225657808201518184015260208101905061223b565b60008484015250505050565b6000601f19601f8301169050919050565b600061227e8261221c565b6122888185612227565b9350612298818560208601612238565b6122a181612262565b840191505092915050565b600060208201905081810360008301526122c68184612273565b905092915050565b6000819050919050565b6122e1816122ce565b81146122ec57600080fd5b50565b6000813590506122fe816122d8565b92915050565b60006020828403121561231a57612319612157565b5b6000612328848285016122ef565b91505092915050565b600073ffffffffffffffffffffffffffffffffffffffff82169050919050565b600061235c82612331565b9050919050565b61236c81612351565b82525050565b60006020820190506123876000830184612363565b92915050565b61239681612351565b81146123a157600080fd5b50565b6000813590506123b38161238d565b92915050565b600080604083850312156123d0576123cf612157565b5b60006123de858286016123a4565b92505060206123ef858286016122ef565b9150509250929050565b60008060006060848603121561241257612411612157565b5b6000612420868287016123a4565b9350506020612431868287016123a4565b9250506040612442868287016122ef565b9150509250925092565b61245581612119565b811461246057600080fd5b50565b6000813590506124728161244c565b92915050565b60006020828403121561248e5761248d612157565b5b600061249c84828501612463565b91505092915050565b600080604083850312156124bc576124bb612157565b5b60006124ca85828601612463565b92505060206124db858286016123a4565b9150509250929050565b6000602082840312156124fb576124fa612157565b5b6000612509848285016123a4565b91505092915050565b61251b816122ce565b82525050565b60006020820190506125366000830184612512565b92915050565b612545816121e6565b811461255057600080fd5b50565b6000813590506125628161253c565b92915050565b6000806040838503121561257f5761257e612157565b5b600061258d858286016123a4565b925050602061259e85828601612553565b9150509250929050565b600080fd5b600080fd5b7f4e487b7100000000000000000000000000000000000000000000000000000000600052604160045260246000fd5b6125ea82612262565b810181811067ffffffffffffffff82111715612609576126086125b2565b5b80604052505050565b600061261c61214d565b905061262882826125e1565b919050565b600067ffffffffffffffff821115612648576126476125b2565b5b61265182612262565b9050602081019050919050565b82818337600083830152505050565b600061268061267b8461262d565b612612565b90508281526020810184848401111561269c5761269b6125ad565b5b6126a784828561265e565b509392505050565b600082601f8301126126c4576126c36125a8565b5b81356126d484826020860161266d565b91505092915050565b600080600080608085870312156126f7576126f6612157565b5b6000612705878288016123a4565b9450506020612716878288016123a4565b9350506040612727878288016122ef565b925050606085013567ffffffffffffffff8111156127485761274761215c565b5b612754878288016126af565b91505092959194509250565b6000806040838503121561277757612776612157565b5b6000612785858286016123a4565b9250506020612796858286016123a4565b9150509250929050565b7f4e487b7100000000000000000000000000000000000000000000000000000000600052602260045260246000fd5b600060028204905060018216806127e757607f821691505b6020821081036127fa576127f96127a0565b5b50919050565b7f4552433732313a20617070726f76616c20746f2063757272656e74206f776e6560008201527f7200000000000000000000000000000000000000000000000000000000000000602082015250565b600061285c602183612227565b915061286782612800565b604082019050919050565b6000602082019050818103600083015261288b8161284f565b9050919050565b7f4552433732313a20617070726f76652063616c6c6572206973206e6f7420746f60008201527f6b656e206f776e6572206f7220617070726f76656420666f7220616c6c000000602082015250565b60006128ee603d83612227565b91506128f982612892565b604082019050919050565b6000602082019050818103600083015261291d816128e1565b9050919050565b7f4552433732313a2063616c6c6572206973206e6f7420746f6b656e206f776e6560008201527f72206f7220617070726f76656400000000000000000000000000000000000000602082015250565b6000612980602d83612227565b915061298b82612924565b604082019050919050565b600060208201905081810360008301526129af81612973565b9050919050565b7f416363657373436f6e74726f6c3a2063616e206f6e6c792072656e6f756e636560008201527f20726f6c657320666f722073656c660000000000000000000000000000000000602082015250565b6000612a12602f83612227565b9150612a1d826129b6565b604082019050919050565b60006020820190508181036000830152612a4181612a05565b9050919050565b7f4552433732313a20696e76616c696420746f6b656e2049440000000000000000600082015250565b6000612a7e601883612227565b9150612a8982612a48565b602082019050919050565b60006020820190508181036000830152612aad81612a71565b9050919050565b7f4552433732313a2061646472657373207a65726f206973206e6f74206120766160008201527f6c6964206f776e65720000000000000000000000000000000000000000000000602082015250565b6000612b10602983612227565b9150612b1b82612ab4565b604082019050919050565b60006020820190508181036000830152612b3f81612b03565b9050919050565b7f556e617574686f72697a65640000000000000000000000000000000000000000600082015250565b6000612b7c600c83612227565b9150612b8782612b46565b602082019050919050565b60006020820190508181036000830152612bab81612b6f565b9050919050565b600081905092915050565b6000612bc88261221c565b612bd28185612bb2565b9350612be2818560208601612238565b80840191505092915050565b6000612bfa8285612bbd565b9150612c068284612bbd565b91508190509392505050565b7f4552433732313a207472616e736665722066726f6d20696e636f72726563742060008201527f6f776e6572000000000000000000000000000000000000000000000000000000602082015250565b6000612c6e602583612227565b9150612c7982612c12565b604082019050919050565b60006020820190508181036000830152612c9d81612c61565b9050919050565b7f4552433732313a207472616e7366657220746f20746865207a65726f2061646460008201527f7265737300000000000000000000000000000000000000000000000000000000602082015250565b6000612d00602483612227565b9150612d0b82612ca4565b604082019050919050565b60006020820190508181036000830152612d2f81612cf3565b9050919050565b7f4552433732313a20617070726f766520746f2063616c6c657200000000000000600082015250565b6000612d6c601983612227565b9150612d7782612d36565b602082019050919050565b60006020820190508181036000830152612d9b81612d5f565b9050919050565b7f4552433732313a207472616e7366657220746f206e6f6e20455243373231526560008201527f63656976657220696d706c656d656e7465720000000000000000000000000000602082015250565b6000612dfe603283612227565b9150612e0982612da2565b604082019050919050565b60006020820190508181036000830152612e2d81612df1565b9050919050565b7f4e487b7100000000000000000000000000000000000000000000000000000000600052601260045260246000fd5b7f4e487b7100000000000000000000000000000000000000000000000000000000600052601160045260246000fd5b6000612e9d826122ce565b9150612ea8836122ce565b9250828203905081811115612ec057612ebf612e63565b5b92915050565b6000612ed1826122ce565b9150612edc836122ce565b9250828201905080821115612ef457612ef3612e63565b5b92915050565b7f416363657373436f6e74726f6c3a206163636f756e7420000000000000000000600082015250565b6000612f30601783612bb2565b9150612f3b82612efa565b601782019050919050565b7f206973206d697373696e6720726f6c6520000000000000000000000000000000600082015250565b6000612f7c601183612bb2565b9150612f8782612f46565b601182019050919050565b6000612f9d82612f23565b9150612fa98285612bbd565b9150612fb482612f6f565b9150612fc08284612bbd565b91508190509392505050565b600081519050919050565b600082825260208201905092915050565b6000612ff382612fcc565b612ffd8185612fd7565b935061300d818560208601612238565b61301681612262565b840191505092915050565b60006080820190506130366000830187612363565b6130436020830186612363565b6130506040830185612512565b81810360608301526130628184612fe8565b905095945050505050565b60008151905061307c8161218d565b92915050565b60006020828403121561309857613097612157565b5b60006130a68482850161306d565b91505092915050565b60006130ba826122ce565b91506130c5836122ce565b92508282026130d3816122ce565b915082820484148315176130ea576130e9612e63565b5b5092915050565b7f4e487b7100000000000000000000000000000000000000000000000000000000600052603260045260246000fd5b600061312b826122ce565b91506000820361313e5761313d612e63565b5b600182039050919050565b7f537472696e67733a20686578206c656e67746820696e73756666696369656e74600082015250565b600061317f602083612227565b915061318a82613149565b602082019050919050565b600060208201905081810360008301526131ae81613172565b9050919050565b7f4552433732313a206d696e7420746f20746865207a65726f2061646472657373600082015250565b60006131eb602083612227565b91506131f6826131b5565b602082019050919050565b6000602082019050818103600083015261321a816131de565b9050919050565b7f4552433732313a20746f6b656e20616c7265616479206d696e74656400000000600082015250565b6000613257601c83612227565b915061326282613221565b602082019050919050565b600060208201905081810360008301526132868161324a565b905091905056fea2646970667358221220c468c29dd3c55b599b566005817d1b17ac604081a91d31853fce8ced3814658964736f6c63430008110033",
  "linkReferences": {},
  "deployedLinkReferences": {}
}