{
  "_format": "hh-sol-artifact-1",
  "contractName": "Staking",
  "sourceName": "contracts/Staking.sol",
  "abi": [
    {
      "inputs": [],
      "name": "Erc20",
      "outputs": [
        {
          "internalType": "address",
          "name": "",
          "type": "address"
        }
      ],
      "stateMutability": "view",
      "type": "function"
    },
    {
      "inputs": [
        {
          "internalType": "address",
          "name": "_tokenAdress",
          "type": "address"
        },
        {
          "internalType": "uint256",
          "name": "_amount",
          "type": "uint256"
        }
      ],
      "name": "deposit",
      "outputs": [],
      "stateMutability": "nonpayable",
      "type": "function"
    },
    {
      "inputs": [
        {
          "internalType": "address",
          "name": "_stakeid",
          "type": "address"
        }
      ],
      "name": "getStakingDetails",
      "outputs": [
        {
          "components": [
            {
              "internalType": "address",
              "name": "user",
              "type": "address"
            },
            {
              "internalType": "address",
              "name": "token",
              "type": "address"
            },
            {
              "internalType": "uint256",
              "name": "amount",
              "type": "uint256"
            },
            {
              "internalType": "uint256",
              "name": "rewardAmount",
              "type": "uint256"
            },
            {
              "internalType": "uint256",
              "name": "stakedTime",
              "type": "uint256"
            },
            {
              "internalType": "bool",
              "name": "isStaked",
              "type": "bool"
            },
            {
              "internalType": "bool",
              "name": "isWithdrawed",
              "type": "bool"
            },
            {
              "internalType": "bool",
              "name": "rewardClaimed",
              "type": "bool"
            },
            {
              "internalType": "bool",
              "name": "isNftClaimed",
              "type": "bool"
            }
          ],
          "internalType": "struct Staking.StakingId",
          "name": "",
          "type": "tuple"
        }
      ],
      "stateMutability": "view",
      "type": "function"
    },
    {
      "inputs": [],
      "name": "nft",
      "outputs": [
        {
          "internalType": "address",
          "name": "",
          "type": "address"
        }
      ],
      "stateMutability": "view",
      "type": "function"
    },
    {
      "inputs": [
        {
          "internalType": "address",
          "name": "_Erc20",
          "type": "address"
        },
        {
          "internalType": "address",
          "name": "_nft",
          "type": "address"
        }
      ],
      "name": "setAdresses",
      "outputs": [],
      "stateMutability": "nonpayable",
      "type": "function"
    },
    {
      "inputs": [],
      "name": "stakeCount",
      "outputs": [
        {
          "internalType": "uint256",
          "name": "",
          "type": "uint256"
        }
      ],
      "stateMutability": "view",
      "type": "function"
    },
    {
      "inputs": [
        {
          "internalType": "address",
          "name": "",
          "type": "address"
        }
      ],
      "name": "stakeId",
      "outputs": [
        {
          "internalType": "uint256",
          "name": "",
          "type": "uint256"
        }
      ],
      "stateMutability": "view",
      "type": "function"
    },
    {
      "inputs": [
        {
          "internalType": "address",
          "name": "",
          "type": "address"
        }
      ],
      "name": "stakingId",
      "outputs": [
        {
          "internalType": "address",
          "name": "user",
          "type": "address"
        },
        {
          "internalType": "address",
          "name": "token",
          "type": "address"
        },
        {
          "internalType": "uint256",
          "name": "amount",
          "type": "uint256"
        },
        {
          "internalType": "uint256",
          "name": "rewardAmount",
          "type": "uint256"
        },
        {
          "internalType": "uint256",
          "name": "stakedTime",
          "type": "uint256"
        },
        {
          "internalType": "bool",
          "name": "isStaked",
          "type": "bool"
        },
        {
          "internalType": "bool",
          "name": "isWithdrawed",
          "type": "bool"
        },
        {
          "internalType": "bool",
          "name": "rewardClaimed",
          "type": "bool"
        },
        {
          "internalType": "bool",
          "name": "isNftClaimed",
          "type": "bool"
        }
      ],
      "stateMutability": "view",
      "type": "function"
    },
    {
      "inputs": [
        {
          "internalType": "address",
          "name": "_stakeid",
          "type": "address"
        }
      ],
      "name": "withdraw",
      "outputs": [],
      "stateMutability": "nonpayable",
      "type": "function"
    }
  ],
  "bytecode": "0x60806040526103e860035534801561001657600080fd5b50611862806100266000396000f3fe608060405234801561001057600080fd5b50600436106100935760003560e01c80636f5492e2116100665780636f5492e21461010c57806384cfdcf81461013c57806387e76f8214610174578063c4a9e11614610190578063d021a27c146101ae57610093565b80630c9b57771461009857806347ccca02146100b657806347e7ef24146100d457806351cff8d9146100f0575b600080fd5b6100a06101de565b6040516100ad9190610fbd565b60405180910390f35b6100be610202565b6040516100cb9190610fbd565b60405180910390f35b6100ee60048036038101906100e9919061103f565b610228565b005b61010a6004803603810190610105919061107f565b610755565b005b6101266004803603810190610121919061107f565b610b45565b604051610133919061119c565b60405180910390f35b6101566004803603810190610151919061107f565b610cd5565b60405161016b999897969594939291906111d6565b60405180910390f35b61018e60048036038101906101899190611263565b610d97565b005b610198610e1c565b6040516101a591906112a3565b60405180910390f35b6101c860048036038101906101c3919061107f565b610e22565b6040516101d591906112a3565b60405180910390f35b60008054906101000a900473ffffffffffffffffffffffffffffffffffffffff1681565b600160009054906101000a900473ffffffffffffffffffffffffffffffffffffffff1681565b60001515600460003373ffffffffffffffffffffffffffffffffffffffff1673ffffffffffffffffffffffffffffffffffffffff16815260200190815260200160002060050160009054906101000a900460ff161515146102be576040517f08c379a00000000000000000000000000000000000000000000000000000000081526004016102b59061131b565b60405180910390fd5b60008111610301576040517f08c379a00000000000000000000000000000000000000000000000000000000081526004016102f890611387565b60405180910390fd5b600082905060008173ffffffffffffffffffffffffffffffffffffffff166370a08231336040518263ffffffff1660e01b81526004016103419190610fbd565b602060405180830381865afa15801561035e573d6000803e3d6000fd5b505050506040513d601f19601f8201168201806040525081019061038291906113bc565b9050828110156103c7576040517f08c379a00000000000000000000000000000000000000000000000000000000081526004016103be90611435565b60405180910390fd5b60008273ffffffffffffffffffffffffffffffffffffffff1663dd62ed3e33306040518363ffffffff1660e01b8152600401610404929190611455565b602060405180830381865afa158015610421573d6000803e3d6000fd5b505050506040513d601f19601f8201168201806040525081019061044591906113bc565b90508381101561048a576040517f08c379a0000000000000000000000000000000000000000000000000000000008152600401610481906114ca565b60405180910390fd5b8273ffffffffffffffffffffffffffffffffffffffff166323b872dd3330876040518463ffffffff1660e01b81526004016104c7939291906114ea565b6020604051808303816000875af11580156104e6573d6000803e3d6000fd5b505050506040513d601f19601f8201168201806040525081019061050a919061154d565b506040518061012001604052803373ffffffffffffffffffffffffffffffffffffffff1681526020018673ffffffffffffffffffffffffffffffffffffffff1681526020018581526020016000815260200142815260200160011515815260200160001515815260200160001515815260200160001515815250600460003373ffffffffffffffffffffffffffffffffffffffff1673ffffffffffffffffffffffffffffffffffffffff16815260200190815260200160002060008201518160000160006101000a81548173ffffffffffffffffffffffffffffffffffffffff021916908373ffffffffffffffffffffffffffffffffffffffff16021790555060208201518160010160006101000a81548173ffffffffffffffffffffffffffffffffffffffff021916908373ffffffffffffffffffffffffffffffffffffffff16021790555060408201518160020155606082015181600301556080820151816004015560a08201518160050160006101000a81548160ff02191690831515021790555060c08201518160050160016101000a81548160ff02191690831515021790555060e08201518160050160026101000a81548160ff0219169083151502179055506101008201518160050160036101000a81548160ff021916908315150217905550905050600160025461070291906115a9565b600281905550600254600560003373ffffffffffffffffffffffffffffffffffffffff1673ffffffffffffffffffffffffffffffffffffffff168152602001908152602001600020819055505050505050565b60001515600460008373ffffffffffffffffffffffffffffffffffffffff1673ffffffffffffffffffffffffffffffffffffffff16815260200190815260200160002060050160019054906101000a900460ff161515146107eb576040517f08c379a00000000000000000000000000000000000000000000000000000000081526004016107e290611629565b60405180910390fd5b6000603c600460008473ffffffffffffffffffffffffffffffffffffffff1673ffffffffffffffffffffffffffffffffffffffff1681526020019081526020016000206004015461083c91906115a9565b9050804211610880576040517f08c379a000000000000000000000000000000000000000000000000000000000815260040161087790611695565b60405180910390fd5b6108be6040518060400160405280600f81526020017f56616c69646174696f6e20747275650000000000000000000000000000000000815250610e3a565b63bbf81e00600354600460008573ffffffffffffffffffffffffffffffffffffffff1673ffffffffffffffffffffffffffffffffffffffff168152602001908152602001600020600401544261091491906116b5565b600460008673ffffffffffffffffffffffffffffffffffffffff1673ffffffffffffffffffffffffffffffffffffffff1681526020019081526020016000206002015461096191906116e9565b61096b91906116e9565b610975919061175a565b600460008473ffffffffffffffffffffffffffffffffffffffff1673ffffffffffffffffffffffffffffffffffffffff168152602001908152602001600020600301819055506001600460008473ffffffffffffffffffffffffffffffffffffffff1673ffffffffffffffffffffffffffffffffffffffff16815260200190815260200160002060050160016101000a81548160ff0219169083151502179055506000600460008473ffffffffffffffffffffffffffffffffffffffff1673ffffffffffffffffffffffffffffffffffffffff16815260200190815260200160002060010160009054906101000a900473ffffffffffffffffffffffffffffffffffffffff1690508073ffffffffffffffffffffffffffffffffffffffff166323b872dd3033600460008873ffffffffffffffffffffffffffffffffffffffff1673ffffffffffffffffffffffffffffffffffffffff168152602001908152602001600020600201546040518463ffffffff1660e01b8152600401610afc939291906114ea565b6020604051808303816000875af1158015610b1b573d6000803e3d6000fd5b505050506040513d601f19601f82011682018060405250810190610b3f919061154d565b50505050565b610b4d610efc565b600460008373ffffffffffffffffffffffffffffffffffffffff1673ffffffffffffffffffffffffffffffffffffffff168152602001908152602001600020604051806101200160405290816000820160009054906101000a900473ffffffffffffffffffffffffffffffffffffffff1673ffffffffffffffffffffffffffffffffffffffff1673ffffffffffffffffffffffffffffffffffffffff1681526020016001820160009054906101000a900473ffffffffffffffffffffffffffffffffffffffff1673ffffffffffffffffffffffffffffffffffffffff1673ffffffffffffffffffffffffffffffffffffffff1681526020016002820154815260200160038201548152602001600482015481526020016005820160009054906101000a900460ff161515151581526020016005820160019054906101000a900460ff161515151581526020016005820160029054906101000a900460ff161515151581526020016005820160039054906101000a900460ff1615151515815250509050919050565b60046020528060005260406000206000915090508060000160009054906101000a900473ffffffffffffffffffffffffffffffffffffffff16908060010160009054906101000a900473ffffffffffffffffffffffffffffffffffffffff16908060020154908060030154908060040154908060050160009054906101000a900460ff16908060050160019054906101000a900460ff16908060050160029054906101000a900460ff16908060050160039054906101000a900460ff16905089565b816000806101000a81548173ffffffffffffffffffffffffffffffffffffffff021916908373ffffffffffffffffffffffffffffffffffffffff16021790555080600160006101000a81548173ffffffffffffffffffffffffffffffffffffffff021916908373ffffffffffffffffffffffffffffffffffffffff1602179055505050565b60025481565b60056020528060005260406000206000915090505481565b610ed081604051602401610e4e919061180a565b6040516020818303038152906040527f41304fac000000000000000000000000000000000000000000000000000000007bffffffffffffffffffffffffffffffffffffffffffffffffffffffff19166020820180517bffffffffffffffffffffffffffffffffffffffffffffffffffffffff8381831617835250505050610ed3565b50565b60008151905060006a636f6e736f6c652e6c6f679050602083016000808483855afa5050505050565b604051806101200160405280600073ffffffffffffffffffffffffffffffffffffffff168152602001600073ffffffffffffffffffffffffffffffffffffffff1681526020016000815260200160008152602001600081526020016000151581526020016000151581526020016000151581526020016000151581525090565b600073ffffffffffffffffffffffffffffffffffffffff82169050919050565b6000610fa782610f7c565b9050919050565b610fb781610f9c565b82525050565b6000602082019050610fd26000830184610fae565b92915050565b600080fd5b610fe681610f9c565b8114610ff157600080fd5b50565b60008135905061100381610fdd565b92915050565b6000819050919050565b61101c81611009565b811461102757600080fd5b50565b60008135905061103981611013565b92915050565b6000806040838503121561105657611055610fd8565b5b600061106485828601610ff4565b92505060206110758582860161102a565b9150509250929050565b60006020828403121561109557611094610fd8565b5b60006110a384828501610ff4565b91505092915050565b6110b581610f9c565b82525050565b6110c481611009565b82525050565b60008115159050919050565b6110df816110ca565b82525050565b610120820160008201516110fc60008501826110ac565b50602082015161110f60208501826110ac565b50604082015161112260408501826110bb565b50606082015161113560608501826110bb565b50608082015161114860808501826110bb565b5060a082015161115b60a08501826110d6565b5060c082015161116e60c08501826110d6565b5060e082015161118160e08501826110d6565b506101008201516111966101008501826110d6565b50505050565b6000610120820190506111b260008301846110e5565b92915050565b6111c181611009565b82525050565b6111d0816110ca565b82525050565b6000610120820190506111ec600083018c610fae565b6111f9602083018b610fae565b611206604083018a6111b8565b61121360608301896111b8565b61122060808301886111b8565b61122d60a08301876111c7565b61123a60c08301866111c7565b61124760e08301856111c7565b6112556101008301846111c7565b9a9950505050505050505050565b6000806040838503121561127a57611279610fd8565b5b600061128885828601610ff4565b925050602061129985828601610ff4565b9150509250929050565b60006020820190506112b860008301846111b8565b92915050565b600082825260208201905092915050565b7f596f7527726520616c7265616479207374616b65640000000000000000000000600082015250565b60006113056015836112be565b9150611310826112cf565b602082019050919050565b60006020820190508181036000830152611334816112f8565b9050919050565b7f416d6f756e74206e6f742067726561746572207468616e207a65726f00000000600082015250565b6000611371601c836112be565b915061137c8261133b565b602082019050919050565b600060208201905081810360008301526113a081611364565b9050919050565b6000815190506113b681611013565b92915050565b6000602082840312156113d2576113d1610fd8565b5b60006113e0848285016113a7565b91505092915050565b7f496e737566666963656e742062616c616e636500000000000000000000000000600082015250565b600061141f6013836112be565b915061142a826113e9565b602082019050919050565b6000602082019050818103600083015261144e81611412565b9050919050565b600060408201905061146a6000830185610fae565b6114776020830184610fae565b9392505050565b7f496e737566666963656e7420616c6c6f77616e63650000000000000000000000600082015250565b60006114b46015836112be565b91506114bf8261147e565b602082019050919050565b600060208201905081810360008301526114e3816114a7565b9050919050565b60006060820190506114ff6000830186610fae565b61150c6020830185610fae565b61151960408301846111b8565b949350505050565b61152a816110ca565b811461153557600080fd5b50565b60008151905061154781611521565b92915050565b60006020828403121561156357611562610fd8565b5b600061157184828501611538565b91505092915050565b7f4e487b7100000000000000000000000000000000000000000000000000000000600052601160045260246000fd5b60006115b482611009565b91506115bf83611009565b92508282019050808211156115d7576115d661157a565b5b92915050565b7f416c726561647920576974686472617765640000000000000000000000000000600082015250565b60006116136012836112be565b915061161e826115dd565b602082019050919050565b6000602082019050818103600083015261164281611606565b9050919050565b7f31204d6f6e7468206475726174696f6e206e6f74207265616368656400000000600082015250565b600061167f601c836112be565b915061168a82611649565b602082019050919050565b600060208201905081810360008301526116ae81611672565b9050919050565b60006116c082611009565b91506116cb83611009565b92508282039050818111156116e3576116e261157a565b5b92915050565b60006116f482611009565b91506116ff83611009565b925082820261170d81611009565b915082820484148315176117245761172361157a565b5b5092915050565b7f4e487b7100000000000000000000000000000000000000000000000000000000600052601260045260246000fd5b600061176582611009565b915061177083611009565b9250826117805761177f61172b565b5b828204905092915050565b600081519050919050565b60005b838110156117b4578082015181840152602081019050611799565b60008484015250505050565b6000601f19601f8301169050919050565b60006117dc8261178b565b6117e681856112be565b93506117f6818560208601611796565b6117ff816117c0565b840191505092915050565b6000602082019050818103600083015261182481846117d1565b90509291505056fea2646970667358221220503eb5b6951fd44b5c835d031a4d1e0c2ef0abec26454b5a241032e35190892964736f6c63430008110033",
  "linkReferences": {},
  "deployedLinkReferences": {}
}